:103C00005AC051C01092C00088E18093C10086E084
:103C10008093C2001092C50083E38093C40080E8C3
:103C200084B915B881E080936E0010920101109262
:103C3000000108952F9A089580EA9FE00197F1F717
:103C40002F980895209100013091010144E160E92D
:103C500071E013C04F3F39F430930101209300010C
:103C60002FEF3FEF16C0CB010197F1F78FEF2F3FFA
:103C7000380711F02F5F3F4F41508091C00087FF00
:103C8000E9CF30930101209300018091C600282FD5
:103C900030E0C9010895982F8091C00085FFFCCFC6
:103CA0009093C60008958DE40895529A5A9A089503
:103CB000529A5A980895CF93DF93F8948FEF94E037
:103CC0009EBF8DBF11241FBEF0DF80E192E0E2E0D5
:103CD000F1E0DF019C011D9221503040E1F78FEFB0
:103CE0009FEF90930501809304018CDFC9ECD6EE21
:103CF0002EC0A8DF3FEF8F3F9307B9F46091060114
:103D0000709107016115710559F0D0930301C093BB
:103D1000020188E091E016D1109203011092020195
:103D2000109207011092060112C0209106013091F5
:103D3000070142E02A30340750F4F901EE5FFE4FEC
:103D400086832F5F3F4F30930701209306018091B8
:103D5000000190910101885A914658F287D088233A
:103D600041F2A6DF0C94000080E090E0DF91CF915B
:103D7000089590E06827792798E021E030EA08C0AC
:103D8000862F817076956795882311F062277327B7
:103D90009150B0F7CB0108950F931F93CF93DF930A
:103DA0008C01EB016FEF7FEF06C0F80181918F016D
:103DB000E0DFBC0121972097C1F7CB01DF91CF91C4
:103DC0001F910F910895FF920F931F93F82E8B016F
:103DD00062DF8F2DB801CDDF1F910F91FF90089505
:103DE0001F93192F58DF812F56DF26DF1F9108956B
:103DF00021DF8DE46FEF7FEFE6CF0F931F93182F36
:103E0000062FF6DFBC01812F8068DDDFBC01802F2B
:103E1000DADFE6DF1F910F9108951F93182FE8DF77
:103E2000BC01812FD0DFDCDF1F91089507B600FCB5
:103E3000FDCFF999FECF0895F9DF81E18093570016
:103E4000E8950895CF93DF93EC01F0DF80910201B4
:103E500090910301895C964E29F485E0FE018093E0
:103E60005700E895E9DFDF91CF910895DFDFE0E8C3
:103E7000FBE385919591A591B49120E08D5C9B4ADF
:103E8000A443B24109F021E0822F0895CFDF24E35B
:103E900032E1E0E8FBE381E0090180935700E89517
:103EA00011242DEC3BEAE2E8FBE309018093570083
:103EB000E895112480E89BE3C5CFCF93DF93EC0115
:103EC000B5DF8091020190910301895C964E29F43F
:103ED00083E0FE0180935700E895AEDFDF91CF913C
:103EE0000895CF92DF92EF92FF920F931F93CF939B
:103EF000DF938C016B01F42EEE24E394C801DDDF27
:103F0000E80194DFF601819191916F01FE010C01AE
:103F1000E0925700E89511242296FA94CE018F770B
:103F20009070892B71F7C8018DDFFF2011F08E0191
:103F3000E5CFDF91CF911F910F91FF90EF90DF9030
:103F4000CF9008950F931F93CF93DF93EC018B01D4
:103F5000633071050CF448C088818D3409F044C089
:103F600062507040CE0118DF292FFE01E00FF11FD3
:103F70003297908132969817B9F5319780818217E0
:103F800099F56981663671F0673618F4653631F552
:103F900005C0673601F1683709F524C080E89BE366
:103FA0008CDF20C0A80147585F4F40782B819A8151
:103FB00080E030E0282B392B80E89BE3841B950BB5
:103FC0008217930758F0BE016C5F7F4F5695479557
:103FD000C90187DF07C05ADF29DF04C0862F61E0EF
:103FE0000CDF02C0898119DFDF91CF911F910F9102
:023FF000089532
:0400000300003C00BD
:00000001FF
