:101C00004BC045C0A6C0B7C077001BB888E18AB9F1
:101C100086E880BD10BC83E389B989B7816089BF3C
:101C2000BF9AC7988898909A0895C79A089580EAAD
:101C30009FE00197F1F7C7980895209160003091D7
:101C4000610044E160E971E013C04F3F39F4309323
:101C50006100209360002FEF3FEF13C0CB0101978D
:101C6000F1F78FEF2F3F380711F02F5F3F4F4150B3
:101C70005F9BEBCF30936100209360008CB1282FE5
:101C800030E0C90108955D9BFECF8CB90895E8E06E
:101C9000FCE1E4918E2F0895CF93DF93F8948FE5C4
:101CA00094E09EBF8DBF11241FBE82E192E0E0E66A
:101CB000F0E0DF019C011D9221503040E1F78FEFF1
:101CC0009FEF90936500809364009FDFC9ECD6EE90
:101CD0002EC0B3DF3FEF8F3F9307B9F460916600EA
:101CE000709167006115710559F0D0936300C0933E
:101CF000620088E690E015D11092630010926200B5
:101D0000109267001092660012C020916600309118
:101D1000670042E02A30340750F4F901E05AFF4FDF
:101D200080872F5F3F4F309367002093660080913C
:101D3000600090916100885A914658F286D08823BD
:101D400041F2E0E0F0E0099580E090E0DF91CF9192
:101D5000089590E06827792798E021E030EA07C0ED
:101D6000862F7695679580FF02C062277327915072
:101D7000B8F7CB0108950F931F93CF93DF938C0196
:101D8000EB016FEF7FEF06C0F80181918F01E1DF7A
:101D9000BC0121972097C1F7CB01DF91CF911F9113
:101DA0000F910895FF920F931F93F82E8B016BDF15
:101DB0008F2DB801CEDF1F910F91FF9008951F93D3
:101DC000192F61DF812F5FDF32DF1F9108952DDF33
:101DD0005EDF6FEF7FEFE6CF0F931F93182F062F75
:101DE000F6DFBC01812F8068DDDFBC01802FDADFE8
:101DF000E6DF1F910F9108951F93182FE8DFBC01B4
:101E0000812FD0DFDCDF1F91089507B600FCFDCFE6
:101E1000E199FECF0895F9DF81E180935700E895BD
:101E20000895CF93DF93EC01F0DF809162009091F1
:101E30006300895C964E29F485E0FE01809357008B
:101E4000E895E9DFDF91CF910895DFDFE0ECFBE17A
:101E500085919591A591B49120E084539241AD4C28
:101E6000BB4A09F421E0822F0895CFDF24E332E159
:101E7000E0ECFBE181E0090180935700E895112433
:101E80002DEC3BEAE2ECFBE1090180935700E89579
:101E9000112480EC9BE1C5CFCF93DF93EC01B5DF3C
:101EA0008091620090916300895C964E29F483E0F2
:101EB000FE0180935700E895AEDFDF91CF91089542
:101EC000CF92DF92EF92FF920F931F93CF93DF9306
:101ED0008C016B01F42EEE24E394C801DDDFE801F0
:101EE00094DFF601819191916F01FE010C01E09266
:101EF0005700E89511242296FA94CE018F739070C2
:101F0000892B71F7C8018DDFFF2011F08E01E5CF1D
:101F1000DF91CF911F910F91FF90EF90DF90CF90C5
:101F20000895EF92FF920F931F93CF93DF93EC01ED
:101F30007B01643071050CF44BC0088110E0A7DE12
:101F40000817190709F044C0B70162507040CE016C
:101F500012DF292FFE01EE0DFF1D32979081329680
:101F60009817B1F531978081821791F569816A35AB
:101F700069F16A3538F16B3519F06C3519F519C00E
:101F8000A701475C5F4F407C2B819A8180E030E065
:101F9000282B392B80EC9BE1841B950B8217930730
:101FA00088F0BE016C5F7F4F56954795C90188DF69
:101FB0000DC08A81882311F058DF08C080EC9BE1B6
:101FC0006BDF04C0862F61E007DF02C0898114DF68
:0E1FD000DF91CF911F910F91FF90EF90089538
:0400000300001C00DD
:00000001FF
