:101800005EC045C01BB888E18AB986E880BD10BCBF
:1018100083E389B980E887BB18BA89B7816089BF3B
:1018200010926100109260000895C79A089580EAAE
:101830009FE00197F1F7C7980895209160003091DB
:10184000610044E160E971E013C04F3F39F4309327
:101850006100209360002FEF3FEF13C0CB01019791
:10186000F1F78FEF2F3F380711F02F5F3F4F4150B7
:101870005F9BEBCF30936100209360008CB1282FE9
:1018800030E0C90108955D9BFECF8CB908958DE4C9
:10189000089582E192E0E2E6F0E0DF019C011D9212
:1018A00021503040E1F710926700109266008FEFF0
:1018B0009FEF9093650080936400A4DF0895CF9319
:1018C000DF93F8948FE594E09EBF8DBF11241FBE77
:1018D000E0DFC9ECD6EE2EC0B0DF2FEF8F3F9207CE
:1018E000B9F460916800709169006115710559F053
:1018F000D0936300C09362008AE690E024D11092F6
:10190000630010926200109269001092680012C089
:10191000209168003091690042E02A30340750F489
:10192000F901EE59FF4F80872F5F3F4F30936900D9
:10193000209368008091600090916100885A9146E0
:1019400058F288D0882341F2E0916600F091670058
:10195000099580E090E0DF91CF91089590E06827AD
:10196000792798E021E030EA08C0862F81707695CB
:101970006795882311F0622773279150B0F7CB0148
:1019800008950F931F93CF93DF938C01EB016FEFBB
:101990007FEF06C0F80181918F01E0DFBC01219744
:1019A0002097C1F7CB01DF91CF911F910F9108953F
:1019B000FF920F931F93F82E8B0165DF8F2DB801D7
:1019C000CDDF1F910F91FF9008951F93192F5BDFBB
:1019D000812F59DF2CDF1F91089527DF8DE46FEFF2
:1019E0007FEFE6DF08950F931F93182F062FF5DF83
:1019F000BC01812F8068DCDFBC01802FD9DFE5DFEF
:101A00001F910F9108951F93182FE7DFBC01812FBD
:101A1000CFDFDBDF1F91089507B600FCFDCFE19912
:101A2000FECF0895CF93DF93EC01F6DF8091620043
:101A300090916300895C964E29F485E0FE018093C5
:101A40005700E895E9DF81E180935700E895DF9141
:101A5000CF910895E1DFE0ECF7E185919491845313
:101A6000924119F080E090E00895E2ECF7E1859171
:101A7000949120E08D5C9B4A09F021E081E02827C9
:101A8000822F0895C9DF24E332E1E0ECF7E181E041
:101A9000090180935700E89511242DEC3BEAE2EC14
:101AA000F7E1090180935700E895112480EC97E154
:101AB000B9DF0895CF93DF93EC01AEDF8091620030
:101AC00090916300895C964E29F483E0FE01809337
:101AD0005700E895A1DF81E180935700E895DF91F9
:101AE000CF910895CF92DF92EF92FF920F931F93C1
:101AF000CF93DF938C016B01F42EEE24E394C801A5
:101B0000D9DFE80189DFF601819191916F01FE0132
:101B10000C01E0925700E89511242296FA94CE0128
:101B20008F739070892B71F7C8017CDFFF2011F053
:101B30008E01E5CFDF91CF911F910F91FF90EF9034
:101B4000DF90CF9008950F931F93CF93DF93EC0115
:101B50008B01633071050CF44BC088818D3419F012
:101B6000882309F045C0B80162507040CE0109DFFA
:101B7000292FFE01E00FF11F3297908132969817BE
:101B8000B9F531978081821799F56981663671F0D0
:101B9000673618F4653631F505C0673601F16837E8
:101BA00009F524C080EC97E185DF20C0A801475CDF
:101BB0005F4F407C2B819A8180E030E0282B392BCD
:101BC00080EC97E1841B950B8217930758F0BE01B8
:101BD0006C5F7F4F56954795C90184DF07C052DF80
:101BE0001BDF04C0862F61E0FEDE02C089810BDFAF
:0A1BF000DF91CF911F910F9108952E
:0400000300001800E1
:00000001FF
